:020000040800F2
:1000000000500020A10C0008790200087B020008C3
:100010007D0200087F020008810200080000000045
:100020000000000000000000000000008302000843
:10003000850200080000000087020008890200080D
:10004000E90C0008E90C0008E90C0008E90C0008BC
:10005000E90C0008E90C0008E90C0008E90C0008AC
:10006000E90C0008E90C0008E90C0008E90C00089C
:10007000E90C0008E90C0008E90C0008E90C00088C
:10008000E90C0008E90C0008E90C0008E90C00087C
:10009000E90C0008E90C0008E90C0008E90C00086C
:1000A000E90C0008E90C0008E90C0008E90C00085C
:1000B000E90C0008E90C0008E90C0008E90C00084C
:1000C000E90C0008E90C0008E90C0008E90C00083C
:1000D000E90C0008E90C0008E90C0008E90C00082C
:1000E000E90C0008E90C0008E90C00080000000019
:1000F0000000000000000000000000000000000000
:0C01000000000000000000005FF808F1A3
:10010C000348044B834202D0034B03B1184770479A
:10011C000C0000200C0000200000000005480649DF
:10012C00091A891001EBD171491002D0034B03B1AC
:10013C00184770470C0000200C0000200000000045
:10014C0010B5064C237843B9FFF7DAFF044B13B113
:10015C000448AFF300800123237010BD0C00002075
:10016C0000000000340D000808B5054B1BB1054913
:10017C000548AFF30080BDE80840FFF7CFBF00BFD4
:10018C000000000010000020340D000830B587B0CE
:10019C0000240294039404940594134B9A6942F03E
:1001AC0010029A619A6902F010020092009A9A6900
:1001BC0042F020029A619B6903F020030193019B9A
:1001CC000A4D22464FF40051284600F0D3FC4FF460
:1001DC0000530293012303930494059302A9284628
:1001EC0000F0DCFB07B030BD0010024000100140F5
:1001FC0030B591B00024089409940B940C9401949C
:10020C000294039404940594012206924FF48033D3
:10021C0007930A9202250D950E934FF4E0130F935A
:10022C0006A800F0C5F80F230193029503944FF430
:10023C00806304930594294601A800F0F9FA11B0E3
:10024C0030BD000008B500F065F8FFF7D1FFFFF7EF
:10025C009DFF4FF4FA7000F081F84FF40051024802
:10026C0000F08EFCF5E700BF001001407047FEE780
:10027C00FEE7FEE7FEE770477047704708B500F0F1
:10028C005BF808BD82B00E4B9A6942F001029A618C
:10029C009A6902F001020092009ADA6942F08052E7
:1002AC00DA61DB6903F080530193019B054A5368C3
:1002BC0023F0E06343F08063536002B0704700BFEB
:1002CC00001002400000014010B504460E4B187897
:1002DC004FF47A73B3FBF0F30C4A1068B0FBF3F0F5
:1002EC0000F09CFC68B90F2C01D901200AE0002217
:1002FC0021464FF0FF3000F05DFC054B1C600020E8
:10030C0000E0012010BD00BF00000020080000200C
:10031C000400002008B5074A136843F0100313606B
:10032C00032000F035FC0020FFF7CEFFFFF7AAFFFB
:10033C00002008BD00200240034A1168034B1B78C3
:10034C000B441360704700BF280000200000002001
:10035C00014B1868704700BF2800002038B50446D0
:10036C00FFF7F6FF0546B4F1FF3F02D0044B1B78B4
:10037C001C44FFF7EDFF401BA042FAD338BD00BF71
:10038C000000002082B0084B1B68084AA2FB032324
:10039C005B0A00FB03F0019000BF019B5A1E019207
:1003AC00002BF9D102B0704708000020D34D621029
:1003BC00002800F0F18170B582B00446036813F098
:1003CC00010F2CD0AA4B5B6803F00C03042B1DD03F
:1003DC00A74B5B6803F00C03082B12D06368B3F5D2
:1003EC00803F41D0002B55D103F1804303F50433FA
:1003FC001A6822F480321A601A6822F480221A6079
:10040C0037E09B4B5B6813F4803FE7D0984B1B683D
:10041C0013F4003F03D06368002B00F0BF81236806
:10042C0013F0020F75D0924B5B6813F00C0F5FD07A
:10043C008F4B5B6803F00C03082B54D02369002B03
:10044C0000F089808B4B01221A60FFF781FF054673
:10045C00874B1B6813F0020F74D1FFF779FF401B19
:10046C000228F5D903209EE1814A136843F48033B6
:10047C001360636843B3FFF76BFF05467C4B1B6847
:10048C0013F4003FCBD1FFF763FF401B6428F5D971
:10049C00032088E1B3F5A02F09D0754B1A6822F41C
:1004AC0080321A601A6822F480221A60E1E703F1A4
:1004BC008043A3F53C331A6842F480221A601A6810
:1004CC0042F480321A60D4E7FFF742FF0546684BCE
:1004DC001B6813F4003FA2D0FFF73AFF401B6428BF
:1004EC00F5D903205FE1624B5B6813F4803FA5D123
:1004FC005F4B1B6813F0020F03D02369012B40F0F4
:10050C004F815B4A136823F0F803616943EAC10326
:10051C001360236813F0080F32D0A369002B5BD053
:10052C00554B01221A60FFF713FF0546504B5B6ACF
:10053C0013F0020F21D1FFF70BFF401B0228F5D956
:10054C00032030E14A4A136823F0F803616943EA57
:10055C00C1031360DDE7474B00221A60FFF7F8FE7A
:10056C000546434B1B6813F0020FD2D0FFF7F0FE89
:10057C00401B0228F5D9032015E10120FFF702FFEB
:10058C00236813F0040F00F09780394BDB6913F0EC
:10059C00805F33D1364BDA6942F08052DA61DB6925
:1005AC0003F080530193019B0125344B1B6813F41A
:1005BC00807F25D0E368012B36D0002B4CD103F182
:1005CC00804303F504331A6A22F001021A621A6A94
:1005DC0022F004021A622CE0274B00221A60FFF76B
:1005EC00B7FE0546224B5B6A13F0020FC8D0FFF72B
:1005FC00AFFE401B0228F5D90320D4E00025D4E738
:10060C001E4A136843F480731360FFF7A1FE06467D
:10061C001A4B1B6813F4807FCCD1FFF799FE801B1B
:10062C006428F5D90320BEE0114A136A43F0010394
:10063C001362E36873B3FFF78BFE06460C4B1B6A21
:10064C0013F0020F37D1FFF783FE801B41F2883382
:10065C009842F3D90320A6E0052B11D0044B1A6A5B
:10066C0022F001021A621A6A22F004021A62E0E70E
:10067C0000100240000042428004424200700040E0
:10068C004D4B1A6A42F004021A621A6A42F00102D5
:10069C001A62CEE7FFF75CFE0646474B1B6A13F067
:1006AC00020F08D0FFF754FE801B41F288339842AA
:1006BC00F3D9032077E0E5B9E369002B72D03E4A09
:1006CC00526802F00C02082A56D0022B17D03B4B72
:1006DC0000221A60FFF73CFE0446374B1B6813F0F0
:1006EC00007F47D0FFF734FE001B0228F5D903200A
:1006FC0059E0314AD36923F08053D361DCE72F4BA7
:10070C0000221A60FFF724FE05462B4B1B6813F0E2
:10071C00007F06D0FFF71CFE401B0228F5D90320F2
:10072C0041E0236AB3F5803F1AD023494B6823F488
:10073C007413226A606A024313434B601F4B0122FD
:10074C001A60FFF705FE04461B4B1B6813F0007F75
:10075C000ED1FFF7FDFD001B0228F5D9032022E086
:10076C00154A536823F40033A1680B435360DCE74C
:10077C00002018E0002016E0012B16D00E4B5B6811
:10078C0003F48031226A914211D103F47013626A2E
:10079C0093420ED1002006E001207047012002E0B8
:1007AC00012000E0002002B070BD0120FBE7012019
:1007BC00F9E70120F7E700BF001002406000424259
:1007CC0010B487B0164C94E80F000DF1180C0CE91E
:1007DC000F00238AADF80430124B5B6803F00C0257
:1007EC00082A03D0104807B010BC7047C3F38342EB
:1007FC00624412F8102C13F4803F0CD0094B5B6848
:10080C00C3F34043634413F8143C074800FB02F065
:10081C00B0FBF3F0E7E7054800FB02F0E3E700BFAD
:10082C004C0D00080010024000127A0000093D0037
:10083C00002800F0A08070B50446534B1B6803F0F1
:10084C0007038B420BD2504A136823F007030B4368
:10085C001360136803F007038B4240F08E8023680B
:10086C0013F0020F17D013F0040F04D0474A53684B
:10087C0043F4E0635360236813F0080F04D0434A39
:10088C00536843F460535360404A536823F0F003B9
:10089C00A068034353600D46236813F0010F31D059
:1008AC006368012B20D0022B25D0384A126812F035
:1008BC00020F64D035494A6822F0030213434B609F
:1008CC00FFF746FD0646314B5B6803F00C0362688C
:1008DC00B3EB820F16D0FFF73BFD801B41F2883340
:1008EC009842F0D9032045E0284A126812F4003FE0
:1008FC00E0D101203EE0254A126812F0007FD9D1E8
:10090C00012037E0204B1B6803F00703AB420AD9E8
:10091C001D4A136823F007032B431360136803F07D
:10092C000703AB422DD1236813F0040F06D0174AEE
:10093C00536823F4E063E1680B435360236813F0BE
:10094C00080F07D0114A536823F46053216943EA16
:10095C00C1035360FFF734FF0C4B5B68C3F3031305
:10096C000B4AD35CD8400B4B18600B4B1868FFF745
:10097C00ABFC002070BD012070470120FAE701207C
:10098C00F8E70120F6E700BF00200240001002400B
:10099C00600D00080800002004000020F0B482B0B4
:1009AC0000263546A0E0002A58D0012A10D1CE6886
:1009BC000EE06A4FBA4251D048D9694FBA424DD075
:1009CC0007F58037BA4249D0A7F58017BA4245D00F
:1009DC00FF2B57D88446FF2B57D8AC00DCF80020EF
:1009EC000F27A74022EA070206FA04F42243CCF8A8
:1009FC0000204A6812F0805F75D05A4A946944F01E
:100A0C0001049461926902F001020192019AAC080E
:100A1C00A71C554A52F8272005F00307BF004FF0DA
:100A2C000F0C0CFA07FC22EA0C0C504A904232D004
:100A3C0002F58062904271D002F5806290426FD0D4
:100A4C0002F58062904224D0042225E0A7F580179D
:100A5C00BA4203D007F58037BA42B9D18A687AB165
:100A6C00012A08D044610826B2E7CE680836AFE701
:100A7C00CE680C36ACE704610826A9E70026A7E788
:100A8C000426A5E700F1040CA5E7A5F10804A400D1
:100A9C00A4E7032200E00022BA4042EA0C0202342E
:100AAC00314F47F824204A6812F4803F3AD0304C3A
:100ABC0022681A4322604A6812F4003F38D02C4C4A
:100ACC0062681A4362604A6812F4801F36D0284C60
:100ADC00A2681A43A2604A6812F4001F34D0244C56
:100AEC00E2681343E36001350B6833FA05F231D049
:100AFC000124AC4023409C42F5D14A68122AB7D05D
:100B0C003FF657AF022AB0D07FF64DAF032AB5D0CF
:100B1C00112A7FF45DAFCE68043659E70122BBE79A
:100B2C000222B9E7124C226822EA03022260C2E7D1
:100B3C000F4C626822EA03026260C4E70C4CA268A4
:100B4C0022EA0302A260C6E7094CE26822EA030328
:100B5C00E360C8E702B0F0BC704700BF0000211092
:100B6C00000031100010024000000140000801405C
:100B7C00000401400AB1016170470904016170472A
:100B8C00C3680B4201D0416170470161704700009E
:100B9C00074AD36823F4E0631B041B0C000200F427
:100BAC00E060184340F0BF6040F40030D060704704
:100BBC0000ED00E030B4174BDB68C3F30223C3F144
:100BCC000704042C28BF04241D1D062D01D9033B4A
:100BDC0000E000234FF0FF3505FA04F421EA04018C
:100BEC00994005FA03F322EA03031943002809DBB1
:100BFC000901C9B200F1604000F5614080F80013B2
:100C0C0030BC704700F00F000901C9B2024B1954F7
:100C1C00F6E700BF00ED00E014ED00E00138B0F1A4
:100C2C00807F0AD2064B5860064AF02182F82310C6
:100C3C000020986007221A6070470120704700BF9F
:100C4C0010E000E000ED00E00F4B1A6842F00102EA
:100C5C001A6059680D4A0A405A601A6822F0847268
:100C6C0022F480321A601A6822F480221A605A68C0
:100C7C0022F4FE025A604FF41F029A60044B4FF0AC
:100C8C0000629A60704700BF001002400000FFF83D
:100C9C0000ED00E0002103E00B4B5B5843500431A6
:100CAC000A480B4B42189A42F6D30A4A02E0002338
:100CBC0042F8043B084B9A42F9D3FFF7C5FF00F00A
:100CCC000FF8FFF7BFFA7047780D000800000020FE
:100CDC000C0000200C0000202C000020FEE700007F
:100CEC0070B500260C4D0D4C641BA410A64209D106
:100CFC0000F01AF800260A4D0A4C641BA410A642F8
:100D0C0005D170BD55F8043B98470136EEE755F810
:100D1C00043B98470136F2E7700D0008700D00088F
:100D2C00700D0008740D0008F8B500BFF8BC08BCC5
:100D3C009E467047F8B500BFF8BC08BC9E4670478D
:100D4C0002030405060708090A0B0C0D0E0F101000
:100D5C00010200000000000000000000010203047A
:040D6C000607080965
:040D70007501000801
:040D74004D01000825
:0C0D780001000000100000000024F40046
:0400000508000CA142
:00000001FF
